S0190000496E746572727570745F506F6C6C696E672E737265630A
S11300000C9434000C9408010C9451000C9451008D
S11300100C9451000C9451000C9451000C94510018
S11300200C9451000C9451000C9451000C94510008
S11300300C9451000C9451000C9451000C945100F8
S11300400C9451000C9451000C9451000C945100E8
S11300500C9451000C9451000C9451000C945100D8
S11300600C9451000C94510011241FBECFEFD8E022
S1130070DEBFCDBF11E0A0E0B1E0E6EAF2E002C0ED
S113008005900D92A230B107D9F721E0A2E0B1E0CA
S113009001C01D92A330B207E1F70E9470000C94D6
S11300A051010C940000811104C080E680937C000F
S11300B003C080E480937C0083E880937A000895F1
S11300C0ECE7F0E09081892B8083EAE7F0E080811F
S11300D080648083808186FDFDCF809179000895BE
S11300E08FEF84B95498E9E6F0E080818E7F8083B5
S11300F080818D7F8083E89A789480E00E94530009
S1130100C0E0D0E000E010E0CC24C394D12C68948B
S1130110662463F8712CA12CB12C88248A94992428
S11301209A946894EE24E1F8F12C4C991CC08091C7
S11301300001909101018330910584F4019749F401
S1130140F0920101E0920001C62DD72D0A2D1B2D3E
S113015036C0D0920101C092000155C0D092010175
S1130160C092000150C08091000190910101813042
S11301709105E9F4C830D10524F0C82DD92D0A2DF4
S11301801B2DCE010196960102C0220F331FCA9582
S1130190E2F7022B132B05B92FE936E841E0215091
S11301A030404040E1F700C00000EC01BECF0297B0
S11301B0E1F4DD2324F4C62DD72D0A2D1B2DCE0109
S11301C00197960102C0220F331FCA95E2F7022B52
S11301D0132B05B92FE936E841E021503040404067
S11301E0E1F700C00000EC01A0CF80E00E946000B5
S11301F085B98FE996E821E0815090402040E1F7ED
S113020000C0000092CFC82DD92D0A2D1B2DB9CFC7
S11302101F920F920FB60F9211242F933F934F9377
S11302205F936F937F938F939F93AF93BF93EF935A
S1130230FF93F8948091000190910101039751F08C
S113024015B82FE986E891E0215080409040E1F70D
S113025000C0000080E00E9460008093020185B924
S11302602FE986E891E0215080409040E1F700C0FA
S1130270000083E090E09093010180930001789462
S1130280FF91EF91BF91AF919F918F917F916F916A
S11302905F914F913F912F910F900FBE0F901F9040
S10902A01895F894FFCF4D
S10502A6010051
S9030000FC
