:100000000C9434000C94CC000C9449000C944900DE
:100010000C9449000C9449000C9449000C9449003C
:100020000C9449000C9449000C9449000C9449002C
:100030000C9449000C9449000C9449000C9449001C
:100040000C9449000C9449000C9449000C9449000C
:100050000C9449000C9449000C9449000C944900FC
:100060000C9449000C94490011241FBECFEFD8E036
:10007000DEBFCDBF11E0A0E0B1E0EEEDF1E002C0E7
:1000800005900D92A230B107D9F70E944B000C9455
:10009000ED000C9400008FEF84B95498E9E6F0E08D
:1000A00080818E7F808380818D7F8083E89A7894A1
:1000B00080E090E040E050E061E070E0F0E0E0E0FF
:1000C000D7E0C0E0A2E0B0E04C9924C0209100014C
:1000D0003091010123303105ACF42130310549F470
:1000E000B0930101A09300014F2F5E2F8D2F9C2F05
:1000F0003CC070930101609300014F2F5E2F8F2F42
:100100009E2F14C02330310529F4709301016093B0
:10011000000107C02091000130910101213031051B
:10012000E1F48830910514F08F2F9E2F9C012F5FF2
:100130003F4F8B0102C0000F111F8A95E2F7402B41
:10014000512B45B91FE986E891E01150804090405D
:10015000E1F700C00000C901B7CF2230310509F036
:10016000B3CF992314F48D2F9C2F9C01215031097A
:100170008B0102C0000F111F8A95E2F7402B512B13
:1001800045B91FE986E891E0115080409040E1F7C1
:1001900000C00000C90198CF1F920F920FB60F92B6
:1001A00011242F938F939F93F8942FE986E891E081
:1001B000215080409040E1F700C0000083E090E0D3
:1001C000909301018093000178949F918F912F91DA
:0E01D0000F900FBE0F901F901895F894FFCF60
:0201DE0001001E
:00000001FF
